:020000040000FA
:1000000070020020F1020000F9020000FB02000073
:10001000FD020000FF0200000103000000000000DC
:1000200000000000000000000000000003030000CA
:100030000503000000000000070300009504000015
:100040000B0300000D0300000F030000110300006C
:10005000130300001503000017030000190300003C
:100060001B0300001D0300001F030000210300000C
:1000700023030000250300002703000029030000DC
:100080002B0300002D0300002F03000031030000AC
:10009000330300003503000037030000390300007C
:1000A0003B0300003D0300003F030000410300004C
:1000B000430300004503000047030000490300001C
:1000C0004B0300004D0300004F03000051030000EC
:1000D00053030000550300005703000059030000BC
:1000E0005B0300005D030000000000005F030000F0
:1000F0006103000063030000650300006703000064
:10010000690300006B0300006D0300006F03000033
:1001100000000000000000007103000073030000F5
:100120007503000077030000790300007B030000E3
:100130007D0300007F0300008103000083030000B3
:1001400000000000000000000000000000000000AF
:100150008503000087030000890300008B03000073
:10016000000000000000000000000000000000008F
:10017000000000000000000000000000000000007F
:10018000000000000000000000000000000000006F
:10019000000000000000000000000000000000005F
:1001A000000000000000000000000000000000004F
:1001B0008D0300008F0300009103000093030000F3
:1001C0009503000097030000990300009B030000C3
:1001D0009D0300009F030000A1030000A303000093
:1001E000A5030000A7030000A90300000000000011
:1001F00000000000AB030000AD030000AF030000EF
:10020000B1030000B3030000000000000000000084
:10021000B5030000B7030000B9030000BB030000F2
:10022000BD030000BF030000C1030000C3030000C2
:10023000C5030000C7030000C9030000CB03000092
:10024000CD030000CF030000D1030000D303000062
:10025000D5030000D7030000D9030000DB03000032
:10026000DD030000DF030000E103000000F002F8FE
:1002700000F02EF80AA090E8000C82448344AAF112
:100280000107DA4501D100F023F8AFF2090EBAE810
:100290000F0013F0010F18BFFB1A43F001031847BA
:1002A000F4020000040300000023002400250026BF
:1002B000103A28BF78C1FBD8520728BF30C148BFC9
:1002C0000B6070471FB500F058F91FBD10B510BD89
:1002D00000F09BF81146FFF7F5FF00F03DF900F044
:1002E000B9F803B4FFF7F2FF03BC00F0C1F8000057
:1002F0003F4880473F480047FEE7FEE7FEE7FEE74E
:10030000FEE7FEE7FEE7FEE7FEE7FEE7FEE7FEE7C5
:10031000FEE7FEE7FEE7FEE7FEE7FEE7FEE7FEE7B5
:10032000FEE7FEE7FEE7FEE7FEE7FEE7FEE7FEE7A5
:10033000FEE7FEE7FEE7FEE7FEE7FEE7FEE7FEE795
:10034000FEE7FEE7FEE7FEE7FEE7FEE7FEE7FEE785
:10035000FEE7FEE7FEE7FEE7FEE7FEE7FEE7FEE775
:10036000FEE7FEE7FEE7FEE7FEE7FEE7FEE7FEE765
:10037000FEE7FEE7FEE7FEE7FEE7FEE7FEE7FEE755
:10038000FEE7FEE7FEE7FEE7FEE7FEE7FEE7FEE745
:10039000FEE7FEE7FEE7FEE7FEE7FEE7FEE7FEE735
:1003A000FEE7FEE7FEE7FEE7FEE7FEE7FEE7FEE725
:1003B000FEE7FEE7FEE7FEE7FEE7FEE7FEE7FEE715
:1003C000FEE7FEE7FEE7FEE7FEE7FEE7FEE7FEE705
:1003D000FEE7FEE7FEE7FEE7FEE7FEE7FEE7FEE7F5
:1003E000FEE7000004480549034A054B704700003A
:1003F000E90400006D02000070000020700200207F
:1004000070000020704770477047754600F02CF868
:10041000AE4605006946534620F00700854618B0F1
:1004200020B5FFF7DFFFBDE820404FF000064FF09A
:1004300000074FF000084FF0000BAC46ACE8C009D5
:10044000ACE8C009ACE8C009ACE8C00921F007017C
:100450008D46704710B50446AFF300802046BDE8D6
:100460001040FFF73EBF000000487047000000202A
:1004700001491820ABBEFEE72600020070470000CD
:100480004EF21000CEF20000016841F0010101605F
:100490007047000040F26800C2F20000D0E900138B
:1004A00040F2600CC2F2000C4A1C9CF8001043F1B0
:1004B0000003C0E9002351B1B2F10A0173F1000158
:1004C00022BF00218CF80010C0E900117047511FB5
:1004D00073F1000138BF704701218CF80010002132
:1004E000C0E90011704700004EF68850CEF20000BF
:1004F000016841F4700101607047000090ED010A4D
:100500009FED141A42784EF2100120EE010ACEF24D
:100510000001BCEEC00A002381ED010A8B602AB104
:10052000012A07D10A6842F0040202E00A6822F0B8
:1005300004020A60007838B1012818BF70470868C3
:1005400040F0020008607047086820F00200086070
:10055000704700BF001B374B80B582B040F20110DE
:10056000ADF800004FF07E5001906846FFF7C6FFDF
:10057000FFF786FF002002B080BDF1EE100A4FF6B3
:10058000FF71C0F2C03120EA010040F04070E1EE9E
:10059000100A7047A405000000000020700200004F
:0405A000A8020000AD
:04000005000002F104
:00000001FF
