:020000040000FA
:1000000060020020F1020000F9020000FB02000083
:10001000FD020000FF0200000103000000000000DC
:1000200000000000000000000000000003030000CA
:1000300005030000000000000703000009030000A2
:100040000B0300000D0300000F030000110300006C
:10005000130300001503000017030000190300003C
:100060001B0300001D0300001F030000210300000C
:1000700023030000250300002703000029030000DC
:100080002B0300002D0300002F03000031030000AC
:10009000330300003503000037030000390300007C
:1000A0003B0300003D0300003F030000410300004C
:1000B000430300004503000047030000490300001C
:1000C0004B0300004D0300004F03000051030000EC
:1000D00053030000550300005703000059030000BC
:1000E0005B0300005D030000000000005F030000F0
:1000F0006103000063030000650300006703000064
:10010000690300006B0300006D0300006F03000033
:1001100000000000000000007103000073030000F5
:100120007503000077030000790300007B030000E3
:100130007D0300007F0300008103000083030000B3
:1001400000000000000000000000000000000000AF
:100150008503000087030000890300008B03000073
:10016000000000000000000000000000000000008F
:10017000000000000000000000000000000000007F
:10018000000000000000000000000000000000006F
:10019000000000000000000000000000000000005F
:1001A000000000000000000000000000000000004F
:1001B0008D0300008F0300009103000093030000F3
:1001C0009503000097030000990300009B030000C3
:1001D0009D0300009F030000A1030000A303000093
:1001E000A5030000A7030000A90300000000000011
:1001F00000000000AB030000AD030000AF030000EF
:10020000B1030000B3030000000000000000000084
:10021000B5030000B7030000B9030000BB030000F2
:10022000BD030000BF030000C1030000C3030000C2
:10023000C5030000C7030000C9030000CB03000092
:10024000CD030000CF030000D1030000D303000062
:10025000D5030000D7030000D9030000DB03000032
:10026000DD030000DF030000E103000000F002F8FE
:1002700000F02EF80AA090E8000C82448344AAF112
:100280000107DA4501D100F023F8AFF2090EBAE810
:100290000F0013F0010F18BFFB1A43F001031847BA
:1002A0001805000028050000002300240025002672
:1002B000103A28BF78C1FBD8520728BF30C148BFC9
:1002C0000B6070471FB500F069FA1FBD10B510BD77
:1002D00000F09BF81146FFF7F5FF00F025FA00F05B
:1002E000B9F803B4FFF7F2FF03BC00F0C1F8000057
:1002F0003F4880473F480047FEE7FEE7FEE7FEE74E
:10030000FEE7FEE7FEE7FEE7FEE7FEE7FEE7FEE7C5
:10031000FEE7FEE7FEE7FEE7FEE7FEE7FEE7FEE7B5
:10032000FEE7FEE7FEE7FEE7FEE7FEE7FEE7FEE7A5
:10033000FEE7FEE7FEE7FEE7FEE7FEE7FEE7FEE795
:10034000FEE7FEE7FEE7FEE7FEE7FEE7FEE7FEE785
:10035000FEE7FEE7FEE7FEE7FEE7FEE7FEE7FEE775
:10036000FEE7FEE7FEE7FEE7FEE7FEE7FEE7FEE765
:10037000FEE7FEE7FEE7FEE7FEE7FEE7FEE7FEE755
:10038000FEE7FEE7FEE7FEE7FEE7FEE7FEE7FEE745
:10039000FEE7FEE7FEE7FEE7FEE7FEE7FEE7FEE735
:1003A000FEE7FEE7FEE7FEE7FEE7FEE7FEE7FEE725
:1003B000FEE7FEE7FEE7FEE7FEE7FEE7FEE7FEE715
:1003C000FEE7FEE7FEE7FEE7FEE7FEE7FEE7FEE705
:1003D000FEE7FEE7FEE7FEE7FEE7FEE7FEE7FEE7F5
:1003E000FEE7000004480549034A054B704700003A
:1003F000150700006D020000600000206002002070
:1004000060000020704770477047754600F02CF878
:10041000AE4605006946534620F00700854618B0F1
:1004200020B5FFF7DFFFBDE820404FF000064FF09A
:1004300000074FF000084FF0000BAC46ACE8C009D5
:10044000ACE8C009ACE8C009ACE8C00921F007017C
:100450008D46704710B50446AFF300802046BDE8D6
:100460001040FFF73EBF000000487047000000202A
:1004700001491820ABBEFEE72600020070470000CD
:1004800048F2000C0903C4F2050C5CF801300122AB
:1004900002FA00F023EA0002034208BF43EA000226
:1004A0004CF801207047000048F200020903C4F232
:1004B0000502515821FA00F000F0010070470000D9
:1004C00048F200034FF0010CC4F205030CFA00F0EF
:1004D0000903002A5A580CBF22EA00001043585062
:1004E0007047000070B54EF26C030278C4F20F033F
:1004F0004FF0010E1C680EFA02F52C431C604EF200
:100500000863C4F20F031C684178867848F2004CF7
:100510002C43C4F2050C1C6000290EFA06F14FEAC8
:1005200002335CF803600CBF26EA010131434CF84A
:100530000310817890F803E00123BEF1000F03FA65
:1005400001F30DD00CEB0234256AD4F82C6189003C
:100550000EFA01F12B4331432362C4F82C1105E05C
:100560000CEB02310C6A24EA03030B624179022985
:100570000ED0012918D011BB81780CEB0234012375
:10058000D4F8005103FA01F12943C4F8001116E030
:1005900081780CEB02340123D4F8085103FA01F1FD
:1005A0002943C4F808110AE081780CEB02340123D6
:1005B000D4F8045103FA01F12943C4F804118379F2
:1005C00081780124002B4FEA023304FA01F16344DD
:1005D00005D0D3F814412143C3F8141104E0D3F833
:1005E00010412143C3F81011BEF1000F18BF70BDB8
:1005F00080780CEB02320121D2F81C3101FA00F0B4
:100600001843C2F81C0170BD70B54EF26C0402783C
:10061000C4F20F044FF0010E25680EFA02F6B5433E
:100620004178837825604EF2086544F2004C46F02C
:100630000104C4F20F05C4F2000C2C6000290EFA6C
:1006400003F14FEA02335CF803600CBF26EA0101B4
:1006500031434CF80310817890F803E00123BEF198
:10066000000F03FA01F30DD00CEB0234256AD4F825
:100670002C6189000EFA01F12B4331432362C4F847
:100680002C1105E00CEB02310C6A24EA03030B6227
:100690004179022918BF01290BD181780CEB023472
:1006A0000123D4F8045103FA01F12943C4F80411D9
:1006B0000BE051B981780CEB02340123D4F80051DE
:1006C00003FA01F12943C4F80011837981780124E8
:1006D000002B4FEA023304FA01F1634405D0D3F84A
:1006E00014412143C3F8141104E0D3F8104121430D
:1006F000C3F81011BEF1000F18BF70BD80780CEB6D
:1007000002320121D2F81C3101FA00F01843C2F87C
:100710001C0170BD4EF68850CEF20000016841F415
:10072000700101607047000010B582B040F2011006
:10073000C0F20200009040F20120ADF80400002059
:100740006C468DF806002046FFF7CCFE2046FFF7EA
:100750005BFF022001210122FFF7B2FE02200121EE
:10076000FFF7A2FE022001210022FFF7A9FE0220CE
:100770000121FFF799FE02200121FFF781FE0220EF
:100780000121FFF77DFE02200121FFF779FE022003
:100790000121FFF775FE002002B010BDF1EE100A36
:1007A0004FF6FF71C0F2C03120EA010040F0407006
:1007B000E1EE100A70470000C807000000000020AA
:0807C00060020000A802000025
:04000005000002F104
:00000001FF
